{
  "address": "0xB47b62DF81443961FbB0c040dc495aeA92F5057B",
  "abi": [
    {
      "anonymous": false,
      "inputs": [
        {
          "indexed": true,
          "internalType": "uint256",
          "name": "requestId",
          "type": "uint256"
        },
        {
          "indexed": true,
          "internalType": "uint256",
          "name": "recordId",
          "type": "uint256"
        },
        {
          "indexed": true,
          "internalType": "address",
          "name": "verifier",
          "type": "address"
        },
        {
          "indexed": false,
          "internalType": "bytes",
          "name": "scopeCipherHandle",
          "type": "bytes"
        }
      ],
      "name": "DecryptionRequested",
      "type": "event"
    },
    {
      "anonymous": false,
      "inputs": [
        {
          "indexed": true,
          "internalType": "uint256",
          "name": "proofId",
          "type": "uint256"
        },
        {
          "indexed": true,
          "internalType": "uint256",
          "name": "recordId",
          "type": "uint256"
        },
        {
          "indexed": true,
          "internalType": "address",
          "name": "verifier",
          "type": "address"
        },
        {
          "indexed": false,
          "internalType": "bytes32",
          "name": "proofHash",
          "type": "bytes32"
        },
        {
          "indexed": false,
          "internalType": "bytes",
          "name": "proofMeta",
          "type": "bytes"
        }
      ],
      "name": "DecryptionResultStored",
      "type": "event"
    },
    {
      "anonymous": false,
      "inputs": [
        {
          "indexed": true,
          "internalType": "uint256",
          "name": "recordId",
          "type": "uint256"
        },
        {
          "indexed": true,
          "internalType": "address",
          "name": "patient",
          "type": "address"
        },
        {
          "indexed": false,
          "internalType": "bytes32",
          "name": "providerHash",
          "type": "bytes32"
        }
      ],
      "name": "RecordCreated",
      "type": "event"
    },
    {
      "anonymous": false,
      "inputs": [
        {
          "indexed": true,
          "internalType": "uint256",
          "name": "recordId",
          "type": "uint256"
        },
        {
          "indexed": true,
          "internalType": "address",
          "name": "patient",
          "type": "address"
        }
      ],
      "name": "RecordRevoked",
      "type": "event"
    },
    {
      "anonymous": false,
      "inputs": [
        {
          "indexed": true,
          "internalType": "uint256",
          "name": "authId",
          "type": "uint256"
        },
        {
          "indexed": true,
          "internalType": "uint256",
          "name": "recordId",
          "type": "uint256"
        },
        {
          "indexed": true,
          "internalType": "address",
          "name": "verifier",
          "type": "address"
        },
        {
          "indexed": false,
          "internalType": "uint64",
          "name": "expiry",
          "type": "uint64"
        },
        {
          "indexed": false,
          "internalType": "bytes",
          "name": "scopeCipherHandle",
          "type": "bytes"
        }
      ],
      "name": "VerifierAuthorized",
      "type": "event"
    },
    {
      "anonymous": false,
      "inputs": [
        {
          "indexed": true,
          "internalType": "uint256",
          "name": "authId",
          "type": "uint256"
        },
        {
          "indexed": true,
          "internalType": "uint256",
          "name": "recordId",
          "type": "uint256"
        },
        {
          "indexed": true,
          "internalType": "address",
          "name": "verifier",
          "type": "address"
        }
      ],
      "name": "VerifierRevoked",
      "type": "event"
    },
    {
      "inputs": [
        {
          "internalType": "uint256",
          "name": "recordId",
          "type": "uint256"
        },
        {
          "internalType": "address",
          "name": "verifier",
          "type": "address"
        },
        {
          "internalType": "externalEuint32",
          "name": "scopeExt",
          "type": "bytes32"
        },
        {
          "internalType": "bytes",
          "name": "inputProof",
          "type": "bytes"
        },
        {
          "internalType": "uint64",
          "name": "expiry",
          "type": "uint64"
        }
      ],
      "name": "authorizeVerifier",
      "outputs": [
        {
          "internalType": "uint256",
          "name": "authId",
          "type": "uint256"
        }
      ],
      "stateMutability": "nonpayable",
      "type": "function"
    },
    {
      "inputs": [
        {
          "internalType": "uint256",
          "name": "",
          "type": "uint256"
        }
      ],
      "name": "auths",
      "outputs": [
        {
          "internalType": "uint256",
          "name": "recordId",
          "type": "uint256"
        },
        {
          "internalType": "address",
          "name": "verifier",
          "type": "address"
        },
        {
          "internalType": "euint32",
          "name": "scope",
          "type": "bytes32"
        },
        {
          "internalType": "uint64",
          "name": "expiry",
          "type": "uint64"
        },
        {
          "internalType": "bool",
          "name": "active",
          "type": "bool"
        }
      ],
      "stateMutability": "view",
      "type": "function"
    },
    {
      "inputs": [
        {
          "internalType": "externalEuint64",
          "name": "encryptedPointerExt",
          "type": "bytes32"
        },
        {
          "internalType": "bytes",
          "name": "inputProof",
          "type": "bytes"
        },
        {
          "internalType": "bytes32",
          "name": "providerHash",
          "type": "bytes32"
        }
      ],
      "name": "createRecord",
      "outputs": [
        {
          "internalType": "uint256",
          "name": "recordId",
          "type": "uint256"
        }
      ],
      "stateMutability": "nonpayable",
      "type": "function"
    },
    {
      "inputs": [
        {
          "internalType": "uint256",
          "name": "recordId",
          "type": "uint256"
        }
      ],
      "name": "getEncryptedRecord",
      "outputs": [
        {
          "internalType": "address",
          "name": "patient",
          "type": "address"
        },
        {
          "internalType": "bytes",
          "name": "encryptedPointerHandle",
          "type": "bytes"
        },
        {
          "internalType": "bytes32",
          "name": "providerHash",
          "type": "bytes32"
        },
        {
          "internalType": "uint64",
          "name": "createdAt",
          "type": "uint64"
        },
        {
          "internalType": "enum MaskedVaccine.RecordStatus",
          "name": "status",
          "type": "uint8"
        }
      ],
      "stateMutability": "view",
      "type": "function"
    },
    {
      "inputs": [
        {
          "internalType": "uint256",
          "name": "recordId",
          "type": "uint256"
        },
        {
          "internalType": "address",
          "name": "verifier",
          "type": "address"
        }
      ],
      "name": "isAuthorized",
      "outputs": [
        {
          "internalType": "bool",
          "name": "",
          "type": "bool"
        }
      ],
      "stateMutability": "view",
      "type": "function"
    },
    {
      "inputs": [
        {
          "internalType": "uint256",
          "name": "",
          "type": "uint256"
        },
        {
          "internalType": "address",
          "name": "",
          "type": "address"
        }
      ],
      "name": "latestAuthIdByRecordAndVerifier",
      "outputs": [
        {
          "internalType": "uint256",
          "name": "",
          "type": "uint256"
        }
      ],
      "stateMutability": "view",
      "type": "function"
    },
    {
      "inputs": [],
      "name": "nextAuthId",
      "outputs": [
        {
          "internalType": "uint256",
          "name": "",
          "type": "uint256"
        }
      ],
      "stateMutability": "view",
      "type": "function"
    },
    {
      "inputs": [],
      "name": "nextProofId",
      "outputs": [
        {
          "internalType": "uint256",
          "name": "",
          "type": "uint256"
        }
      ],
      "stateMutability": "view",
      "type": "function"
    },
    {
      "inputs": [],
      "name": "nextRecordId",
      "outputs": [
        {
          "internalType": "uint256",
          "name": "",
          "type": "uint256"
        }
      ],
      "stateMutability": "view",
      "type": "function"
    },
    {
      "inputs": [],
      "name": "nextRequestId",
      "outputs": [
        {
          "internalType": "uint256",
          "name": "",
          "type": "uint256"
        }
      ],
      "stateMutability": "view",
      "type": "function"
    },
    {
      "inputs": [],
      "name": "protocolId",
      "outputs": [
        {
          "internalType": "uint256",
          "name": "",
          "type": "uint256"
        }
      ],
      "stateMutability": "pure",
      "type": "function"
    },
    {
      "inputs": [
        {
          "internalType": "uint256",
          "name": "",
          "type": "uint256"
        }
      ],
      "name": "records",
      "outputs": [
        {
          "internalType": "address",
          "name": "patient",
          "type": "address"
        },
        {
          "internalType": "euint64",
          "name": "encryptedPointer",
          "type": "bytes32"
        },
        {
          "internalType": "bytes32",
          "name": "providerHash",
          "type": "bytes32"
        },
        {
          "internalType": "uint64",
          "name": "createdAt",
          "type": "uint64"
        },
        {
          "internalType": "enum MaskedVaccine.RecordStatus",
          "name": "status",
          "type": "uint8"
        }
      ],
      "stateMutability": "view",
      "type": "function"
    },
    {
      "inputs": [
        {
          "internalType": "uint256",
          "name": "recordId",
          "type": "uint256"
        },
        {
          "internalType": "externalEuint32",
          "name": "scopeExt",
          "type": "bytes32"
        },
        {
          "internalType": "bytes",
          "name": "inputProof",
          "type": "bytes"
        }
      ],
      "name": "requestDecryption",
      "outputs": [
        {
          "internalType": "uint256",
          "name": "requestId",
          "type": "uint256"
        }
      ],
      "stateMutability": "nonpayable",
      "type": "function"
    },
    {
      "inputs": [
        {
          "internalType": "uint256",
          "name": "authId",
          "type": "uint256"
        }
      ],
      "name": "revokeAuthorization",
      "outputs": [],
      "stateMutability": "nonpayable",
      "type": "function"
    },
    {
      "inputs": [
        {
          "internalType": "uint256",
          "name": "recordId",
          "type": "uint256"
        }
      ],
      "name": "revokeRecord",
      "outputs": [],
      "stateMutability": "nonpayable",
      "type": "function"
    },
    {
      "inputs": [
        {
          "internalType": "uint256",
          "name": "recordId",
          "type": "uint256"
        },
        {
          "internalType": "address",
          "name": "verifier",
          "type": "address"
        },
        {
          "internalType": "bytes32",
          "name": "proofHash",
          "type": "bytes32"
        },
        {
          "internalType": "bytes",
          "name": "proofMeta",
          "type": "bytes"
        }
      ],
      "name": "storeDecryptionProof",
      "outputs": [
        {
          "internalType": "uint256",
          "name": "proofId",
          "type": "uint256"
        }
      ],
      "stateMutability": "nonpayable",
      "type": "function"
    }
  ],
  "transactionHash": "0x384638282e37f258c58b8a8b287e870ccac0e49d06a13ee80d5f0cd466c976d2",
  "args": [],
  "numDeployments": 1,
  "solcInputHash": "8b8a06c62e5c6f2b45250e6f29d6c178",
  "bytecode": "0x608060405260015f556001805560016002556001600355348015610021575f5ffd5b5061019c6100c0604080516080810182525f808252602082018190529181018290526060810191909152506040805160808101825273687820221192c5b662b25367f70076a37bc79b6c815273848b0066793bcc60346da1f49049357399b8d595602082015273a02cda4ca3a71d7c46997716f4283aa851c2881291810191909152731364cbbf2cdf5032c47d8226a6f6fbd2afcdacac606082015290565b80517f9e7b61f58c47dc699ac88507c4f5bb9f121c03808c5676a8078fe583e464970080546001600160a01b03199081166001600160a01b039384161790915560208301517f9e7b61f58c47dc699ac88507c4f5bb9f121c03808c5676a8078fe583e46497018054831691841691909117905560408301517f9e7b61f58c47dc699ac88507c4f5bb9f121c03808c5676a8078fe583e46497028054831691841691909117905560608301517f9e7b61f58c47dc699ac88507c4f5bb9f121c03808c5676a8078fe583e46497038054909216921691909117905550565b61145a806101a95f395ff3fe608060405234801561000f575f5ffd5b50600436106100fb575f3560e01c8063827e462e11610093578063dbde207d11610063578063dbde207d146102e0578063ea59d8f0146102e8578063ecd1b987146102fb578063f7f3e0a214610304575f5ffd5b8063827e462e1461028857806396e5d9da1461029b578063d1127f85146102c5578063da1f12ab146102d8575f5ffd5b80634c13fcc9116100ce5780634c13fcc9146102255780635b2c7ed914610238578063609c6d7f1461025c5780636a84a9851461027f575f5ffd5b8063068df3dd146100ff57806308ac8d22146101945780632eafa294146101ab57806334461067146101c0575b5f5ffd5b61015361010d366004611055565b60056020525f9081526040902080546001820154600283015460039093015491926001600160a01b039091169167ffffffffffffffff811690600160401b900460ff1685565b604080519586526001600160a01b0390941660208601529284019190915267ffffffffffffffff1660608301521515608082015260a0015b60405180910390f35b61019d60035481565b60405190815260200161018b565b6101be6101b9366004611055565b610317565b005b6102146101ce366004611055565b60046020525f908152604090208054600182015460028301546003909301546001600160a01b0390921692909167ffffffffffffffff811690600160401b900460ff1685565b60405161018b959493929190611094565b61019d610233366004611139565b610444565b61024b610246366004611055565b61075e565b60405161018b9594939291906111e8565b61026f61026a36600461122e565b61080b565b604051901515815260200161018b565b61019d60025481565b61019d610296366004611258565b61087f565b61019d6102a936600461122e565b600660209081525f928352604080842090915290825290205481565b61019d6102d33660046112bb565b61093a565b61271161019d565b61019d5f5481565b61019d6102f636600461130a565b610b4e565b61019d60015481565b6101be610312366004611055565b610cdb565b5f8181526004602052604090205481906001600160a01b031633146103765760405162461bcd60e51b815260206004820152601060248201526f2737ba103932b1b7b9321037bbb732b960811b60448201526064015b60405180910390fd5b5f5f83815260046020526040902060030154600160401b900460ff1660018111156103a3576103a361106c565b146103f05760405162461bcd60e51b815260206004820152600f60248201527f416c7265616479207265766f6b65640000000000000000000000000000000000604482015260640161036d565b5f82815260046020526040808220600301805468ff00000000000000001916600160401b17905551339184917f632bccfe81e1527d0f3fc23ce2c33092a37919e0f696bea7a1a6ee146e1079ef9190a35050565b5f8681526004602052604081205487906001600160a01b0316331461049e5760405162461bcd60e51b815260206004820152601060248201526f2737ba103932b1b7b9321037bbb732b960811b604482015260640161036d565b5f5f89815260046020526040902060030154600160401b900460ff1660018111156104cb576104cb61106c565b146105185760405162461bcd60e51b815260206004820152601160248201527f5265636f7264206e6f7420616374697665000000000000000000000000000000604482015260640161036d565b6001600160a01b03871661056e5760405162461bcd60e51b815260206004820152601060248201527f496e76616c696420766572696669657200000000000000000000000000000000604482015260640161036d565b428367ffffffffffffffff16116105c75760405162461bcd60e51b815260206004820152600e60248201527f496e76616c696420657870697279000000000000000000000000000000000000604482015260640161036d565b5f6106078787878080601f0160208091040260200160405190810160405280939291908181526020018383808284375f92019190915250610e4392505050565b600180549192505f61061883611359565b909155506040805160a0810182528b81526001600160a01b03808c16602080840182815284860188815267ffffffffffffffff808d16606088019081526001608089018181525f8c8152600588528b81209a518b559551918a0180549290991673ffffffffffffffffffffffffffffffffffffffff19909216919091179097559151600288015590516003909601805495511515600160401b0268ffffffffffffffffff199096169690911695909517939093179093558d8252600683528382209082529091522081905592506106ee81610e57565b506106f98133610e66565b506107048189610e66565b50876001600160a01b031689847fb6c7de56c9c4259e536c5e19a24db4e95827348b5b738847ad6535f38953bab18761073c86610e78565b60405161074a92919061137d565b60405180910390a450509695505050505050565b5f81815260046020526040812080546060918391829182916001600160a01b03166107be5760405162461bcd60e51b815260206004820152601060248201526f149958dbdc99081b9bdd08199bdd5b9960821b604482015260640161036d565b805460018201546001600160a01b03909116906107da90610e78565b6002830154600390930154919990985091965067ffffffffffffffff81169550600160401b900460ff169350915050565b5f8281526006602090815260408083206001600160a01b038516845290915281205480820361083d575f915050610879565b5f8181526005602052604090206003810154600160401b900460ff168015610874575060038101544267ffffffffffffffff909116115b925050505b92915050565b5f858152600460205260408120546001600160a01b03166108d55760405162461bcd60e51b815260206004820152601060248201526f149958dbdc99081b9bdd08199bdd5b9960821b604482015260640161036d565b60038054905f6108e483611359565b919050559050846001600160a01b031686827f8082482ed9ab6774e6514c4e6859ff96fd84577ffdf76208dcdc5d2b19b22a57878787604051610929939291906113a7565b60405180910390a495945050505050565b5f805f86815260046020526040902060030154600160401b900460ff1660018111156109685761096861106c565b146109b55760405162461bcd60e51b815260206004820152601160248201527f5265636f7264206e6f7420616374697665000000000000000000000000000000604482015260640161036d565b5f85815260066020908152604080832033845290915290205480158015906109f457505f81815260056020526040902060030154600160401b900460ff165b610a405760405162461bcd60e51b815260206004820152600e60248201527f4e6f7420617574686f72697a6564000000000000000000000000000000000000604482015260640161036d565b5f818152600560205260409020600301544267ffffffffffffffff90911611610aab5760405162461bcd60e51b815260206004820152601560248201527f417574686f72697a6174696f6e20657870697265640000000000000000000000604482015260640161036d565b5f610aeb8686868080601f0160208091040260200160405190810160405280939291908181526020018383808284375f92019190915250610e4392505050565b600280549192505f610afc83611359565b9091555092503387847f78966acd436f44f4a0605b8f730f54ed258313404f799c0f4a1e82f15e8ea5c6610b2f85610e78565b604051610b3c91906113dc565b60405180910390a45050949350505050565b5f5f610b8f8686868080601f0160208091040260200160405190810160405280939291908181526020018383808284375f92019190915250610ea392505050565b5f805491925080610b9f83611359565b909155506040805160a0810182523381526020810184905290810185905267ffffffffffffffff42166060820152909250608081015f90525f83815260046020908152604091829020835181546001600160a01b0390911673ffffffffffffffffffffffffffffffffffffffff1990911617815590830151600180830191909155918301516002820155606083015160038201805467ffffffffffffffff90921667ffffffffffffffff1983168117825560808601519394919268ffffffffffffffffff19161790600160401b908490811115610c7e57610c7e61106c565b0217905550905050610c8f81610e57565b50610c9a8133610e66565b50604051838152339083907f3a0c39f3f976e0d7c9c405a02fbb46a16d7493ca4da4de9aafdf112d318ca4069060200160405180910390a350949350505050565b5f8181526005602052604081208054909103610d395760405162461bcd60e51b815260206004820152600e60248201527f41757468206e6f7420666f756e64000000000000000000000000000000000000604482015260640161036d565b80545f908152600460205260409020546001600160a01b03163314610d935760405162461bcd60e51b815260206004820152601060248201526f2737ba103932b1b7b9321037bbb732b960811b604482015260640161036d565b6003810154600160401b900460ff16610dee5760405162461bcd60e51b815260206004820152601060248201527f416c726561647920696e61637469766500000000000000000000000000000000604482015260640161036d565b60038101805468ff000000000000000019169055600181015481546040516001600160a01b039092169184907fe370d1e27b3ebd61e727cb939209dc69ab0bc23f392816fad83ab26127beea8e905f90a45050565b5f610e5083836004610eac565b9392505050565b5f610e628230610fcc565b5090565b5f610e718383610fcc565b5090919050565b606081604051602001610e8d91815260200190565b6040516020818303038152906040529050919050565b5f610e50838360055b7f9e7b61f58c47dc699ac88507c4f5bb9f121c03808c5676a8078fe583e46497015460405163196d0b9b60e01b81525f917f9e7b61f58c47dc699ac88507c4f5bb9f121c03808c5676a8078fe583e4649700916001600160a01b039091169063196d0b9b90610f259088903390899089906004016113ee565b6020604051808303815f875af1158015610f41573d5f5f3e3d5ffd5b505050506040513d601f19601f82011682018060405250810190610f659190611436565b8154604051630f8e573b60e21b8152600481018390523360248201529193506001600160a01b031690633e395cec906044015f604051808303815f87803b158015610fae575f5ffd5b505af1158015610fc0573d5f5f3e3d5ffd5b50505050509392505050565b5f7f9e7b61f58c47dc699ac88507c4f5bb9f121c03808c5676a8078fe583e46497008054604051635ca4b5b160e11b8152600481018690526001600160a01b03858116602483015292935091169063b9496b62906044015f604051808303815f87803b15801561103a575f5ffd5b505af115801561104c573d5f5f3e3d5ffd5b50505050505050565b5f60208284031215611065575f5ffd5b5035919050565b634e487b7160e01b5f52602160045260245ffd5b600281106110905761109061106c565b9052565b6001600160a01b0386168152602081018590526040810184905267ffffffffffffffff8316606082015260a081016110cf6080830184611080565b9695505050505050565b80356001600160a01b03811681146110ef575f5ffd5b919050565b5f5f83601f840112611104575f5ffd5b50813567ffffffffffffffff81111561111b575f5ffd5b602083019150836020828501011115611132575f5ffd5b9250929050565b5f5f5f5f5f5f60a0878903121561114e575f5ffd5b8635955061115e602088016110d9565b945060408701359350606087013567ffffffffffffffff811115611180575f5ffd5b61118c89828a016110f4565b909450925050608087013567ffffffffffffffff811681146111ac575f5ffd5b809150509295509295509295565b5f81518084528060208401602086015e5f602082860101526020601f19601f83011685010191505092915050565b6001600160a01b038616815260a060208201525f61120960a08301876111ba565b905084604083015267ffffffffffffffff841660608301526110cf6080830184611080565b5f5f6040838503121561123f575f5ffd5b8235915061124f602084016110d9565b90509250929050565b5f5f5f5f5f6080868803121561126c575f5ffd5b8535945061127c602087016110d9565b935060408601359250606086013567ffffffffffffffff81111561129e575f5ffd5b6112aa888289016110f4565b969995985093965092949392505050565b5f5f5f5f606085870312156112ce575f5ffd5b8435935060208501359250604085013567ffffffffffffffff8111156112f2575f5ffd5b6112fe878288016110f4565b95989497509550505050565b5f5f5f5f6060858703121561131d575f5ffd5b84359350602085013567ffffffffffffffff81111561133a575f5ffd5b611346878288016110f4565b9598909750949560400135949350505050565b5f6001820161137657634e487b7160e01b5f52601160045260245ffd5b5060010190565b67ffffffffffffffff83168152604060208201525f61139f60408301846111ba565b949350505050565b83815260406020820152816040820152818360608301375f818301606090810191909152601f909201601f1916010192915050565b602081525f610e5060208301846111ba565b8481526001600160a01b0384166020820152608060408201525f61141560808301856111ba565b9050605483106114275761142761106c565b82606083015295945050505050565b5f60208284031215611446575f5ffd5b505191905056fea164736f6c634300081b000a",
  "devdoc": {
    "details": "/",
    "kind": "dev",
    "methods": {},
    "title": "MaskedVaccine  MVP",
    "version": 1
  },
  "userdoc": {
    "kind": "user",
    "methods": {},
    "notice": " FHEVM  ACL ",
    "version": 1
  },
  "storageLayout": {
    "storage": [
      {
        "astId": 39127,
        "contract": "contracts/MaskedVaccine.sol:MaskedVaccine",
        "label": "nextRecordId",
        "offset": 0,
        "slot": "0",
        "type": "t_uint256"
      },
      {
        "astId": 39130,
        "contract": "contracts/MaskedVaccine.sol:MaskedVaccine",
        "label": "nextAuthId",
        "offset": 0,
        "slot": "1",
        "type": "t_uint256"
      },
      {
        "astId": 39133,
        "contract": "contracts/MaskedVaccine.sol:MaskedVaccine",
        "label": "nextRequestId",
        "offset": 0,
        "slot": "2",
        "type": "t_uint256"
      },
      {
        "astId": 39136,
        "contract": "contracts/MaskedVaccine.sol:MaskedVaccine",
        "label": "nextProofId",
        "offset": 0,
        "slot": "3",
        "type": "t_uint256"
      },
      {
        "astId": 39141,
        "contract": "contracts/MaskedVaccine.sol:MaskedVaccine",
        "label": "records",
        "offset": 0,
        "slot": "4",
        "type": "t_mapping(t_uint256,t_struct(VaccineRecord)39056_storage)"
      },
      {
        "astId": 39146,
        "contract": "contracts/MaskedVaccine.sol:MaskedVaccine",
        "label": "auths",
        "offset": 0,
        "slot": "5",
        "type": "t_mapping(t_uint256,t_struct(VerifierAuthorization)39068_storage)"
      },
      {
        "astId": 39152,
        "contract": "contracts/MaskedVaccine.sol:MaskedVaccine",
        "label": "latestAuthIdByRecordAndVerifier",
        "offset": 0,
        "slot": "6",
        "type": "t_mapping(t_uint256,t_mapping(t_address,t_uint256))"
      }
    ],
    "types": {
      "t_address": {
        "encoding": "inplace",
        "label": "address",
        "numberOfBytes": "20"
      },
      "t_bool": {
        "encoding": "inplace",
        "label": "bool",
        "numberOfBytes": "1"
      },
      "t_bytes32": {
        "encoding": "inplace",
        "label": "bytes32",
        "numberOfBytes": "32"
      },
      "t_enum(RecordStatus)39043": {
        "encoding": "inplace",
        "label": "enum MaskedVaccine.RecordStatus",
        "numberOfBytes": "1"
      },
      "t_mapping(t_address,t_uint256)": {
        "encoding": "mapping",
        "key": "t_address",
        "label": "mapping(address => uint256)",
        "numberOfBytes": "32",
        "value": "t_uint256"
      },
      "t_mapping(t_uint256,t_mapping(t_address,t_uint256))": {
        "encoding": "mapping",
        "key": "t_uint256",
        "label": "mapping(uint256 => mapping(address => uint256))",
        "numberOfBytes": "32",
        "value": "t_mapping(t_address,t_uint256)"
      },
      "t_mapping(t_uint256,t_struct(VaccineRecord)39056_storage)": {
        "encoding": "mapping",
        "key": "t_uint256",
        "label": "mapping(uint256 => struct MaskedVaccine.VaccineRecord)",
        "numberOfBytes": "32",
        "value": "t_struct(VaccineRecord)39056_storage"
      },
      "t_mapping(t_uint256,t_struct(VerifierAuthorization)39068_storage)": {
        "encoding": "mapping",
        "key": "t_uint256",
        "label": "mapping(uint256 => struct MaskedVaccine.VerifierAuthorization)",
        "numberOfBytes": "32",
        "value": "t_struct(VerifierAuthorization)39068_storage"
      },
      "t_struct(VaccineRecord)39056_storage": {
        "encoding": "inplace",
        "label": "struct MaskedVaccine.VaccineRecord",
        "members": [
          {
            "astId": 39045,
            "contract": "contracts/MaskedVaccine.sol:MaskedVaccine",
            "label": "patient",
            "offset": 0,
            "slot": "0",
            "type": "t_address"
          },
          {
            "astId": 39048,
            "contract": "contracts/MaskedVaccine.sol:MaskedVaccine",
            "label": "encryptedPointer",
            "offset": 0,
            "slot": "1",
            "type": "t_userDefinedValueType(euint64)39717"
          },
          {
            "astId": 39050,
            "contract": "contracts/MaskedVaccine.sol:MaskedVaccine",
            "label": "providerHash",
            "offset": 0,
            "slot": "2",
            "type": "t_bytes32"
          },
          {
            "astId": 39052,
            "contract": "contracts/MaskedVaccine.sol:MaskedVaccine",
            "label": "createdAt",
            "offset": 0,
            "slot": "3",
            "type": "t_uint64"
          },
          {
            "astId": 39055,
            "contract": "contracts/MaskedVaccine.sol:MaskedVaccine",
            "label": "status",
            "offset": 8,
            "slot": "3",
            "type": "t_enum(RecordStatus)39043"
          }
        ],
        "numberOfBytes": "128"
      },
      "t_struct(VerifierAuthorization)39068_storage": {
        "encoding": "inplace",
        "label": "struct MaskedVaccine.VerifierAuthorization",
        "members": [
          {
            "astId": 39058,
            "contract": "contracts/MaskedVaccine.sol:MaskedVaccine",
            "label": "recordId",
            "offset": 0,
            "slot": "0",
            "type": "t_uint256"
          },
          {
            "astId": 39060,
            "contract": "contracts/MaskedVaccine.sol:MaskedVaccine",
            "label": "verifier",
            "offset": 0,
            "slot": "1",
            "type": "t_address"
          },
          {
            "astId": 39063,
            "contract": "contracts/MaskedVaccine.sol:MaskedVaccine",
            "label": "scope",
            "offset": 0,
            "slot": "2",
            "type": "t_userDefinedValueType(euint32)39709"
          },
          {
            "astId": 39065,
            "contract": "contracts/MaskedVaccine.sol:MaskedVaccine",
            "label": "expiry",
            "offset": 0,
            "slot": "3",
            "type": "t_uint64"
          },
          {
            "astId": 39067,
            "contract": "contracts/MaskedVaccine.sol:MaskedVaccine",
            "label": "active",
            "offset": 8,
            "slot": "3",
            "type": "t_bool"
          }
        ],
        "numberOfBytes": "128"
      },
      "t_uint256": {
        "encoding": "inplace",
        "label": "uint256",
        "numberOfBytes": "32"
      },
      "t_uint64": {
        "encoding": "inplace",
        "label": "uint64",
        "numberOfBytes": "8"
      },
      "t_userDefinedValueType(euint32)39709": {
        "encoding": "inplace",
        "label": "euint32",
        "numberOfBytes": "32"
      },
      "t_userDefinedValueType(euint64)39717": {
        "encoding": "inplace",
        "label": "euint64",
        "numberOfBytes": "32"
      }
    }
  }
}